{
  "contractName": "MintingPress",
  "abi": [
    {
      "inputs": [
        {
          "internalType": "string",
          "name": "api",
          "type": "string"
        },
        {
          "internalType": "string",
          "name": "pressName",
          "type": "string"
        },
        {
          "internalType": "string",
          "name": "pressSymbol",
          "type": "string"
        },
        {
          "internalType": "string",
          "name": "pressDescription",
          "type": "string"
        },
        {
          "internalType": "uint256",
          "name": "initialTokenId",
          "type": "uint256"
        },
        {
          "internalType": "string",
          "name": "pressAuthor",
          "type": "string"
        },
        {
          "internalType": "address",
          "name": "creator",
          "type": "address"
        }
      ],
      "stateMutability": "nonpayable",
      "type": "constructor"
    },
    {
      "anonymous": false,
      "inputs": [
        {
          "indexed": true,
          "internalType": "address",
          "name": "owner",
          "type": "address"
        },
        {
          "indexed": true,
          "internalType": "address",
          "name": "approved",
          "type": "address"
        },
        {
          "indexed": true,
          "internalType": "uint256",
          "name": "tokenId",
          "type": "uint256"
        }
      ],
      "name": "Approval",
      "type": "event"
    },
    {
      "anonymous": false,
      "inputs": [
        {
          "indexed": true,
          "internalType": "address",
          "name": "owner",
          "type": "address"
        },
        {
          "indexed": true,
          "internalType": "address",
          "name": "operator",
          "type": "address"
        },
        {
          "indexed": false,
          "internalType": "bool",
          "name": "approved",
          "type": "bool"
        }
      ],
      "name": "ApprovalForAll",
      "type": "event"
    },
    {
      "anonymous": false,
      "inputs": [
        {
          "indexed": true,
          "internalType": "address",
          "name": "from",
          "type": "address"
        },
        {
          "indexed": true,
          "internalType": "address",
          "name": "to",
          "type": "address"
        },
        {
          "indexed": true,
          "internalType": "uint256",
          "name": "tokenId",
          "type": "uint256"
        }
      ],
      "name": "Transfer",
      "type": "event"
    },
    {
      "anonymous": false,
      "inputs": [
        {
          "indexed": false,
          "internalType": "address",
          "name": "_seller",
          "type": "address"
        },
        {
          "indexed": false,
          "internalType": "address",
          "name": "_buyer",
          "type": "address"
        },
        {
          "indexed": false,
          "internalType": "uint256",
          "name": "_tokenId",
          "type": "uint256"
        },
        {
          "indexed": false,
          "internalType": "uint256",
          "name": "_tokenPrice",
          "type": "uint256"
        },
        {
          "indexed": false,
          "internalType": "uint256",
          "name": "_royaltyPct",
          "type": "uint256"
        },
        {
          "indexed": false,
          "internalType": "uint256",
          "name": "_date",
          "type": "uint256"
        },
        {
          "indexed": false,
          "internalType": "uint256",
          "name": "buyNonce",
          "type": "uint256"
        }
      ],
      "name": "tokenBuy",
      "type": "event"
    },
    {
      "inputs": [
        {
          "internalType": "address",
          "name": "",
          "type": "address"
        }
      ],
      "name": "access",
      "outputs": [
        {
          "internalType": "uint256",
          "name": "owner",
          "type": "uint256"
        },
        {
          "internalType": "uint256",
          "name": "manager",
          "type": "uint256"
        },
        {
          "internalType": "uint256",
          "name": "operator",
          "type": "uint256"
        }
      ],
      "stateMutability": "view",
      "type": "function"
    },
    {
      "inputs": [],
      "name": "admin",
      "outputs": [
        {
          "internalType": "address",
          "name": "",
          "type": "address"
        }
      ],
      "stateMutability": "view",
      "type": "function"
    },
    {
      "inputs": [],
      "name": "author",
      "outputs": [
        {
          "internalType": "string",
          "name": "",
          "type": "string"
        }
      ],
      "stateMutability": "view",
      "type": "function"
    },
    {
      "inputs": [
        {
          "internalType": "address",
          "name": "owner",
          "type": "address"
        }
      ],
      "name": "balanceOf",
      "outputs": [
        {
          "internalType": "uint256",
          "name": "",
          "type": "uint256"
        }
      ],
      "stateMutability": "view",
      "type": "function"
    },
    {
      "inputs": [],
      "name": "descr",
      "outputs": [
        {
          "internalType": "string",
          "name": "",
          "type": "string"
        }
      ],
      "stateMutability": "view",
      "type": "function"
    },
    {
      "inputs": [
        {
          "internalType": "uint256",
          "name": "tokenId",
          "type": "uint256"
        }
      ],
      "name": "getApproved",
      "outputs": [
        {
          "internalType": "address",
          "name": "",
          "type": "address"
        }
      ],
      "stateMutability": "view",
      "type": "function"
    },
    {
      "inputs": [],
      "name": "name",
      "outputs": [
        {
          "internalType": "string",
          "name": "",
          "type": "string"
        }
      ],
      "stateMutability": "view",
      "type": "function"
    },
    {
      "inputs": [
        {
          "internalType": "uint256",
          "name": "tokenId",
          "type": "uint256"
        }
      ],
      "name": "ownerOf",
      "outputs": [
        {
          "internalType": "address",
          "name": "",
          "type": "address"
        }
      ],
      "stateMutability": "view",
      "type": "function"
    },
    {
      "inputs": [],
      "name": "pName",
      "outputs": [
        {
          "internalType": "string",
          "name": "",
          "type": "string"
        }
      ],
      "stateMutability": "view",
      "type": "function"
    },
    {
      "inputs": [],
      "name": "pSymbol",
      "outputs": [
        {
          "internalType": "string",
          "name": "",
          "type": "string"
        }
      ],
      "stateMutability": "view",
      "type": "function"
    },
    {
      "inputs": [],
      "name": "symbol",
      "outputs": [
        {
          "internalType": "string",
          "name": "",
          "type": "string"
        }
      ],
      "stateMutability": "view",
      "type": "function"
    },
    {
      "inputs": [
        {
          "internalType": "uint256",
          "name": "index",
          "type": "uint256"
        }
      ],
      "name": "tokenByIndex",
      "outputs": [
        {
          "internalType": "uint256",
          "name": "",
          "type": "uint256"
        }
      ],
      "stateMutability": "view",
      "type": "function"
    },
    {
      "inputs": [
        {
          "internalType": "uint256",
          "name": "",
          "type": "uint256"
        }
      ],
      "name": "tokenData",
      "outputs": [
        {
          "internalType": "string",
          "name": "cid",
          "type": "string"
        },
        {
          "internalType": "string",
          "name": "title",
          "type": "string"
        },
        {
          "internalType": "uint256",
          "name": "price",
          "type": "uint256"
        },
        {
          "internalType": "uint256",
          "name": "royalty",
          "type": "uint256"
        }
      ],
      "stateMutability": "view",
      "type": "function"
    },
    {
      "inputs": [],
      "name": "tokenId",
      "outputs": [
        {
          "internalType": "uint256",
          "name": "",
          "type": "uint256"
        }
      ],
      "stateMutability": "view",
      "type": "function"
    },
    {
      "inputs": [
        {
          "internalType": "address",
          "name": "owner",
          "type": "address"
        },
        {
          "internalType": "uint256",
          "name": "index",
          "type": "uint256"
        }
      ],
      "name": "tokenOfOwnerByIndex",
      "outputs": [
        {
          "internalType": "uint256",
          "name": "",
          "type": "uint256"
        }
      ],
      "stateMutability": "view",
      "type": "function"
    },
    {
      "inputs": [],
      "name": "totalSupply",
      "outputs": [
        {
          "internalType": "uint256",
          "name": "",
          "type": "uint256"
        }
      ],
      "stateMutability": "view",
      "type": "function"
    },
    {
      "inputs": [
        {
          "internalType": "address",
          "name": "from",
          "type": "address"
        },
        {
          "internalType": "address",
          "name": "to",
          "type": "address"
        },
        {
          "internalType": "uint256",
          "name": "tokenId",
          "type": "uint256"
        }
      ],
      "name": "transferFrom",
      "outputs": [],
      "stateMutability": "nonpayable",
      "type": "function"
    },
    {
      "inputs": [
        {
          "internalType": "uint256",
          "name": "",
          "type": "uint256"
        }
      ],
      "name": "usedNonces",
      "outputs": [
        {
          "internalType": "bool",
          "name": "",
          "type": "bool"
        }
      ],
      "stateMutability": "view",
      "type": "function"
    },
    {
      "inputs": [
        {
          "internalType": "string",
          "name": "_cidMeta",
          "type": "string"
        },
        {
          "internalType": "string",
          "name": "_cidToken",
          "type": "string"
        },
        {
          "internalType": "string",
          "name": "_title",
          "type": "string"
        }
      ],
      "name": "mint",
      "outputs": [],
      "stateMutability": "nonpayable",
      "type": "function"
    },
    {
      "inputs": [
        {
          "internalType": "address",
          "name": "_sender",
          "type": "address"
        }
      ],
      "name": "getApi",
      "outputs": [
        {
          "internalType": "string",
          "name": "",
          "type": "string"
        }
      ],
      "stateMutability": "view",
      "type": "function"
    },
    {
      "inputs": [
        {
          "internalType": "uint256",
          "name": "_tokenId",
          "type": "uint256"
        }
      ],
      "name": "getCid",
      "outputs": [
        {
          "internalType": "string",
          "name": "",
          "type": "string"
        }
      ],
      "stateMutability": "view",
      "type": "function"
    },
    {
      "inputs": [
        {
          "internalType": "uint256",
          "name": "_tokenId",
          "type": "uint256"
        }
      ],
      "name": "getTitle",
      "outputs": [
        {
          "internalType": "string",
          "name": "",
          "type": "string"
        }
      ],
      "stateMutability": "view",
      "type": "function"
    },
    {
      "inputs": [
        {
          "internalType": "string",
          "name": "_cid",
          "type": "string"
        }
      ],
      "name": "existsCid",
      "outputs": [
        {
          "internalType": "bool",
          "name": "",
          "type": "bool"
        }
      ],
      "stateMutability": "view",
      "type": "function"
    },
    {
      "inputs": [
        {
          "internalType": "uint256",
          "name": "_tokenId",
          "type": "uint256"
        },
        {
          "internalType": "uint256",
          "name": "_tokenPrice",
          "type": "uint256"
        }
      ],
      "name": "setPrice",
      "outputs": [],
      "stateMutability": "nonpayable",
      "type": "function"
    },
    {
      "inputs": [
        {
          "internalType": "uint256",
          "name": "_tokenId",
          "type": "uint256"
        }
      ],
      "name": "getPrice",
      "outputs": [
        {
          "internalType": "uint256",
          "name": "",
          "type": "uint256"
        }
      ],
      "stateMutability": "view",
      "type": "function"
    },
    {
      "inputs": [
        {
          "internalType": "uint256",
          "name": "_tokenId",
          "type": "uint256"
        },
        {
          "internalType": "uint96",
          "name": "_royaltyPct",
          "type": "uint96"
        }
      ],
      "name": "setRoyalties",
      "outputs": [],
      "stateMutability": "nonpayable",
      "type": "function"
    },
    {
      "inputs": [
        {
          "internalType": "uint256",
          "name": "_tokenId",
          "type": "uint256"
        }
      ],
      "name": "getRoyalties",
      "outputs": [
        {
          "internalType": "uint256",
          "name": "",
          "type": "uint256"
        }
      ],
      "stateMutability": "view",
      "type": "function"
    },
    {
      "inputs": [
        {
          "internalType": "bytes4",
          "name": "interfaceId",
          "type": "bytes4"
        }
      ],
      "name": "supportsInterface",
      "outputs": [
        {
          "internalType": "bool",
          "name": "",
          "type": "bool"
        }
      ],
      "stateMutability": "view",
      "type": "function"
    },
    {
      "inputs": [
        {
          "internalType": "uint256",
          "name": "_tokenId",
          "type": "uint256"
        }
      ],
      "name": "buyToken",
      "outputs": [],
      "stateMutability": "payable",
      "type": "function"
    },
    {
      "inputs": [
        {
          "internalType": "uint256",
          "name": "_tokenId",
          "type": "uint256"
        }
      ],
      "name": "tokenURI",
      "outputs": [
        {
          "internalType": "string",
          "name": "",
          "type": "string"
        }
      ],
      "stateMutability": "view",
      "type": "function"
    },
    {
      "inputs": [],
      "name": "getTokenList",
      "outputs": [
        {
          "internalType": "uint256[]",
          "name": "",
          "type": "uint256[]"
        }
      ],
      "stateMutability": "view",
      "type": "function"
    },
    {
      "inputs": [
        {
          "internalType": "uint256",
          "name": "_tokenId",
          "type": "uint256"
        }
      ],
      "name": "burn",
      "outputs": [
        {
          "internalType": "bool",
          "name": "",
          "type": "bool"
        }
      ],
      "stateMutability": "nonpayable",
      "type": "function"
    },
    {
      "inputs": [
        {
          "internalType": "address",
          "name": "to",
          "type": "address"
        },
        {
          "internalType": "uint256",
          "name": "_tokenId",
          "type": "uint256"
        }
      ],
      "name": "approve",
      "outputs": [],
      "stateMutability": "nonpayable",
      "type": "function"
    },
    {
      "inputs": [
        {
          "internalType": "address",
          "name": "operator",
          "type": "address"
        },
        {
          "internalType": "bool",
          "name": "approved",
          "type": "bool"
        }
      ],
      "name": "setApprovalForAll",
      "outputs": [],
      "stateMutability": "nonpayable",
      "type": "function"
    },
    {
      "inputs": [
        {
          "internalType": "address",
          "name": "_owner",
          "type": "address"
        },
        {
          "internalType": "address",
          "name": "_operator",
          "type": "address"
        }
      ],
      "name": "isApprovedForAll",
      "outputs": [
        {
          "internalType": "bool",
          "name": "isOperator",
          "type": "bool"
        }
      ],
      "stateMutability": "view",
      "type": "function"
    },
    {
      "inputs": [
        {
          "internalType": "address",
          "name": "_owner",
          "type": "address"
        }
      ],
      "name": "getOperator",
      "outputs": [
        {
          "internalType": "address",
          "name": "",
          "type": "address"
        }
      ],
      "stateMutability": "view",
      "type": "function"
    },
    {
      "inputs": [
        {
          "internalType": "address",
          "name": "_approved",
          "type": "address"
        },
        {
          "internalType": "uint256",
          "name": "_tokenId",
          "type": "uint256"
        }
      ],
      "name": "clearApproval",
      "outputs": [],
      "stateMutability": "nonpayable",
      "type": "function"
    },
    {
      "inputs": [
        {
          "internalType": "address",
          "name": "_sender",
          "type": "address"
        },
        {
          "internalType": "uint256",
          "name": "_type",
          "type": "uint256"
        }
      ],
      "name": "getAccess",
      "outputs": [
        {
          "internalType": "bool",
          "name": "",
          "type": "bool"
        }
      ],
      "stateMutability": "view",
      "type": "function"
    },
    {
      "inputs": [],
      "name": "getAddress",
      "outputs": [
        {
          "internalType": "address",
          "name": "",
          "type": "address"
        }
      ],
      "stateMutability": "view",
      "type": "function"
    },
    {
      "inputs": [
        {
          "internalType": "address",
          "name": "from",
          "type": "address"
        },
        {
          "internalType": "address",
          "name": "to",
          "type": "address"
        },
        {
          "internalType": "uint256",
          "name": "tokenId",
          "type": "uint256"
        }
      ],
      "name": "safeTransferFrom",
      "outputs": [],
      "stateMutability": "nonpayable",
      "type": "function"
    },
    {
      "inputs": [
        {
          "internalType": "address",
          "name": "from",
          "type": "address"
        },
        {
          "internalType": "address",
          "name": "to",
          "type": "address"
        },
        {
          "internalType": "uint256",
          "name": "_tokenId",
          "type": "uint256"
        },
        {
          "internalType": "bytes",
          "name": "_data",
          "type": "bytes"
        }
      ],
      "name": "safeTransferFrom",
      "outputs": [],
      "stateMutability": "nonpayable",
      "type": "function"
    }
  ],
  "bytecode": "0x6080604052633b9aca016012553480156200001957600080fd5b50604051620038b4380380620038b48339810160408190526200003c9162000281565b855186908690620000559060009060208501906200010b565b5080516200006b9060019060208401906200010b565b5050875162000083915060109060208a01906200010b565b5085516200009990600b9060208901906200010b565b508451620000af90600c9060208801906200010b565b508351620000c590600d9060208701906200010b565b508151620000db90600e9060208501906200010b565b50600a80546001600160a01b0319166001600160a01b039290921691909117905550600f5550620003cb92505050565b828054620001199062000378565b90600052602060002090601f0160209004810192826200013d576000855562000188565b82601f106200015857805160ff191683800117855562000188565b8280016001018555821562000188579182015b82811115620001885782518255916020019190600101906200016b565b50620001969291506200019a565b5090565b5b808211156200019657600081556001016200019b565b80516001600160a01b0381168114620001c957600080fd5b919050565b600082601f830112620001df578081fd5b81516001600160401b0380821115620001fc57620001fc620003b5565b604051601f8301601f19908116603f01168101908282118183101715620002275762000227620003b5565b8160405283815260209250868385880101111562000243578485fd5b8491505b8382101562000266578582018301518183018401529082019062000247565b838211156200027757848385830101525b9695505050505050565b600080600080600080600060e0888a0312156200029c578283fd5b87516001600160401b0380821115620002b3578485fd5b620002c18b838c01620001ce565b985060208a0151915080821115620002d7578485fd5b620002e58b838c01620001ce565b975060408a0151915080821115620002fb578485fd5b620003098b838c01620001ce565b965060608a01519150808211156200031f578485fd5b6200032d8b838c01620001ce565b955060808a0151945060a08a01519150808211156200034a578384fd5b50620003598a828b01620001ce565b9250506200036a60c08901620001b1565b905092959891949750929550565b600181811c908216806200038d57607f821691505b60208210811415620003af57634e487b7160e01b600052602260045260246000fd5b50919050565b634e487b7160e01b600052604160045260246000fd5b6134d980620003db6000396000f3fe6080604052600436106102c65760003560e01c80636fae3d7611610179578063bbba3644116100d6578063e75722301161008a578063ed76c2eb11610064578063ed76c2eb146107f1578063f7d9757714610806578063f851a4401461082657600080fd5b8063e757223014610781578063e985e9c5146107b1578063ebd6b186146107d157600080fd5b8063c7eba286116100bb578063c7eba2861461072c578063c87b56dd14610741578063d645ddf61461076157600080fd5b8063bbba3644146106f7578063c2b50d1a1461070c57600080fd5b8063a22cb4651161012d578063b4b5b48f11610112578063b4b5b48f14610687578063b88d4fde146106b7578063bb3bafd6146106d757600080fd5b8063a22cb46514610652578063a6c3e6b91461067257600080fd5b806373b3f3191161015e57806373b3f319146105fd578063929a79b11461061d57806395d89b411461063d57600080fd5b80636fae3d761461058657806370a08231146105dd57600080fd5b80632f745c59116102275780634f6ccce7116101db5780636352211e116101c05780636352211e146105165780636717e41c146105365780636de530011461056657600080fd5b80634f6ccce7146104bd5780635865c60c146104dd57600080fd5b80633beaa6ab1161020c5780633beaa6ab1461045d57806342842e0e1461047d57806342966c681461049d57600080fd5b80632f745c591461042a57806338cc48311461044a57600080fd5b806317d70f7c1161027e57806323b872dd1161026357806323b872dd146103d5578063273cbaa0146103f55780632d296bf11461041757600080fd5b806317d70f7c1461039c57806318160ddd146103c057600080fd5b8063081812fc116102af578063081812fc14610322578063095ea7b31461035a57806310b0a2011461037c57600080fd5b806301ffc9a7146102cb57806306fdde0314610300575b600080fd5b3480156102d757600080fd5b506102eb6102e636600461301b565b610846565b60405190151581526020015b60405180910390f35b34801561030c57600080fd5b50610315610891565b6040516102f791906132ee565b34801561032e57600080fd5b5061034261033d36600461310a565b610923565b6040516001600160a01b0390911681526020016102f7565b34801561036657600080fd5b5061037a610375366004612ff2565b6109ce565b005b34801561038857600080fd5b506102eb610397366004613053565b610ba1565b3480156103a857600080fd5b506103b2600f5481565b6040519081526020016102f7565b3480156103cc57600080fd5b506008546103b2565b3480156103e157600080fd5b5061037a6103f0366004612f04565b610be9565b34801561040157600080fd5b5061040a610c77565b6040516102f791906132aa565b61037a61042536600461310a565b610cce565b34801561043657600080fd5b506103b2610445366004612ff2565b610f52565b34801561045657600080fd5b5030610342565b34801561046957600080fd5b5061031561047836600461310a565b610ffa565b34801561048957600080fd5b5061037a610498366004612f04565b61109e565b3480156104a957600080fd5b506102eb6104b836600461310a565b6110b9565b3480156104c957600080fd5b506103b26104d836600461310a565b61128e565b3480156104e957600080fd5b506103426104f8366004612eb8565b6001600160a01b039081166000908152601560205260409020541690565b34801561052257600080fd5b5061034261053136600461310a565b611340565b34801561054257600080fd5b506102eb61055136600461310a565b60176020526000908152604090205460ff1681565b34801561057257600080fd5b5061037a610581366004612ff2565b6113cb565b34801561059257600080fd5b506105c26105a1366004612eb8565b60186020526000908152604090208054600182015460029092015490919083565b604080519384526020840192909252908201526060016102f7565b3480156105e957600080fd5b506103b26105f8366004612eb8565b611469565b34801561060957600080fd5b50610315610618366004612eb8565b611503565b34801561062957600080fd5b5061031561063836600461310a565b6115f5565b34801561064957600080fd5b50610315611616565b34801561065e57600080fd5b5061037a61066d366004612fb8565b611625565b34801561067e57600080fd5b50610315611802565b34801561069357600080fd5b506106a76106a236600461310a565b611890565b6040516102f79493929190613301565b3480156106c357600080fd5b5061037a6106d2366004612f3f565b6119c8565b3480156106e357600080fd5b506103b26106f236600461310a565b611ac8565b34801561070357600080fd5b50610315611b0c565b34801561071857600080fd5b5061037a610727366004613143565b611b19565b34801561073857600080fd5b50610315611d35565b34801561074d57600080fd5b5061031561075c36600461310a565b611d42565b34801561076d57600080fd5b5061037a61077c366004613086565b611e70565b34801561078d57600080fd5b506103b261079c36600461310a565b60009081526014602052604090206002015490565b3480156107bd57600080fd5b506102eb6107cc366004612ed2565b611fc0565b3480156107dd57600080fd5b506102eb6107ec366004612ff2565b61201e565b3480156107fd57600080fd5b506103156120ae565b34801561081257600080fd5b5061037a610821366004613122565b6120bb565b34801561083257600080fd5b50600a54610342906001600160a01b031681565b60006001600160e01b031982167f2a55205a00000000000000000000000000000000000000000000000000000000141561088257506001919050565b61088b826121b1565b92915050565b6060600080546108a090613408565b80601f01602080910402602001604051908101604052809291908181526020018280546108cc90613408565b80156109195780601f106108ee57610100808354040283529160200191610919565b820191906000526020600020905b8154815290600101906020018083116108fc57829003601f168201915b5050505050905090565b6000818152600260205260408120546001600160a01b03166109b25760405162461bcd60e51b815260206004820152602c60248201527f4552433732313a20617070726f76656420717565727920666f72206e6f6e657860448201527f697374656e7420746f6b656e000000000000000000000000000000000000000060648201526084015b60405180910390fd5b506000908152600460205260409020546001600160a01b031690565b60006109d982611340565b9050806001600160a01b0316836001600160a01b03161415610a635760405162461bcd60e51b815260206004820152602160248201527f4552433732313a20617070726f76616c20746f2063757272656e74206f776e6560448201527f720000000000000000000000000000000000000000000000000000000000000060648201526084016109a9565b806001600160a01b0316610a756121ef565b6001600160a01b03161480610a915750610a91816107cc6121ef565b610b035760405162461bcd60e51b815260206004820152603860248201527f4552433732313a20617070726f76652063616c6c6572206973206e6f74206f7760448201527f6e6572206e6f7220617070726f76656420666f7220616c6c000000000000000060648201526084016109a9565b610b0d83836121fe565b6001600160a01b03831615610b55576001600160a01b03831660009081526018602052604081206001908101805491929091610b4a90849061333a565b90915550610b9c9050565b600160186000610b6485610923565b6001600160a01b03166001600160a01b031681526020019081526020016000206001016000828254610b9691906133c5565b90915550505b505050565b6000806013600084604051602001610bb991906131a3565b60408051601f198184030181529181528151602092830120835290820192909252016000205460ff169392505050565b610bfa610bf46121ef565b82612279565b610c6c5760405162461bcd60e51b815260206004820152603160248201527f4552433732313a207472616e736665722063616c6c6572206973206e6f74206f60448201527f776e6572206e6f7220617070726f76656400000000000000000000000000000060648201526084016109a9565b610b9c838383612361565b6060601180548060200260200160405190810160405280929190818152602001828054801561091957602002820191906000526020600020905b815481526020019060010190808311610cb1575050505050905090565b6000818152601460205260408120600281015460039091015490919061271090610cf89084613372565b610d029190613352565b905060008211610d545760405162461bcd60e51b815260206004820152601560248201527f546f6b656e206973206e6f7420666f722073616c65000000000000000000000060448201526064016109a9565b813414610da35760405162461bcd60e51b815260206004820152601260248201527f507269636520697320696e636f7272656374000000000000000000000000000060448201526064016109a9565b6000610dae84611340565b9050610dd281610dbc6121ef565b8660405180602001604052806000815250612546565b8115610e1457600a546040516001600160a01b039091169083156108fc029084906000818181858888f19350505050158015610e12573d6000803e3d6000fd5b505b6001600160a01b0381166108fc610e2b84866133c5565b6040518115909202916000818181858888f19350505050158015610e53573d6000803e3d6000fd5b506000610e5f85610923565b6001600160a01b031614610eb457600160186000610e7c87610923565b6001600160a01b03166001600160a01b031681526020019081526020016000206001016000828254610eae91906133c5565b90915550505b6000848152601460205260408120600201557ff1f0e499b1c486fbaac2e3e7e0828c07353b3d9a7e3a73f0b248ee5ae0df4ebe81610ef06121ef565b601254604080516001600160a01b03948516815293909216602084015290820187905260608201869052608082018590524260a083015260c082015260e00160405180910390a160128054906000610f4783613443565b919050555050505050565b6000610f5d83611469565b8210610fd15760405162461bcd60e51b815260206004820152602b60248201527f455243373231456e756d657261626c653a206f776e657220696e646578206f7560448201527f74206f6620626f756e647300000000000000000000000000000000000000000060648201526084016109a9565b506001600160a01b03919091166000908152600660209081526040808320938352929052205490565b60008181526014602052604081208054606092919061101890613408565b80601f016020809104026020016040519081016040528092919081815260200182805461104490613408565b80156110915780601f1061106657610100808354040283529160200191611091565b820191906000526020600020905b81548152906001019060200180831161107457829003601f168201915b5093979650505050505050565b610b9c838383604051806020016040528060008152506119c8565b6000806110c46121ef565b90506110d08184612279565b6111425760405162461bcd60e51b815260206004820152603160248201527f4552433732313a207472616e736665722063616c6c6572206973206e6f74206f60448201527f776e6572206e6f7220617070726f76656400000000000000000000000000000060648201526084016109a9565b600061114d84610923565b6001600160a01b0316146111a25760016018600061116a86610923565b6001600160a01b03166001600160a01b03168152602001908152602001600020600101600082825461119c91906133c5565b90915550505b6111ab836125cf565b60006111b684611340565b6001600160a01b038181166000908152601560205260408120549293509116906111df83611469565b905080611282576001600160a01b0380841660008181526016602090815260408083209487168352938152838220805460ff191690559181526015909152908120805473ffffffffffffffffffffffffffffffffffffffff1916905560019060189061124a89610923565b6001600160a01b03166001600160a01b03168152602001908152602001600020600201600082825461127c91906133c5565b90915550505b50600195945050505050565b600061129960085490565b821061130d5760405162461bcd60e51b815260206004820152602c60248201527f455243373231456e756d657261626c653a20676c6f62616c20696e646578206f60448201527f7574206f6620626f756e6473000000000000000000000000000000000000000060648201526084016109a9565b6008828154811061132e57634e487b7160e01b600052603260045260246000fd5b90600052602060002001549050919050565b6000818152600260205260408120546001600160a01b03168061088b5760405162461bcd60e51b815260206004820152602960248201527f4552433732313a206f776e657220717565727920666f72206e6f6e657869737460448201527f656e7420746f6b656e000000000000000000000000000000000000000000000060648201526084016109a9565b816001600160a01b03166113de82610923565b6001600160a01b03161461145a5760405162461bcd60e51b815260206004820152603a60248201527f54686520616464726573732069732063757272656e746c79206e6f742061707060448201527f726f76656420746f206d616e616765207468697320746f6b656e00000000000060648201526084016109a9565b6114656000826109ce565b5050565b60006001600160a01b0382166114e75760405162461bcd60e51b815260206004820152602a60248201527f4552433732313a2062616c616e636520717565727920666f7220746865207a6560448201527f726f20616464726573730000000000000000000000000000000000000000000060648201526084016109a9565b506001600160a01b031660009081526003602052604090205490565b600a546060906001600160a01b038381169116146115635760405162461bcd60e51b815260206004820152600a60248201527f41646d696e206f6e6c790000000000000000000000000000000000000000000060448201526064016109a9565b6010805461157090613408565b80601f016020809104026020016040519081016040528092919081815260200182805461159c90613408565b80156115e95780601f106115be576101008083540402835291602001916115e9565b820191906000526020600020905b8154815290600101906020018083116115cc57829003601f168201915b50505050509050919050565b60008181526014602052604081206001018054606092919061101890613408565b6060600180546108a090613408565b600061162f6121ef565b9050600061163c82611469565b116116895760405162461bcd60e51b815260206004820152601560248201527f446f206e6f74206f776e20616e7920746f6b656e73000000000000000000000060448201526064016109a9565b806001600160a01b0316836001600160a01b031614156116eb5760405162461bcd60e51b815260206004820152601960248201527f4552433732313a20617070726f766520746f2063616c6c65720000000000000060448201526064016109a9565b828261172c576001600160a01b038116600090815260186020526040812060020180546001929061171d9084906133c5565b90915550600091506117ad9050565b6001600160a01b03828116600081815260166020908152604080832089861684528252808320805460ff191689151517905592825260158152828220805473ffffffffffffffffffffffffffffffffffffffff19169486169485179055928152601890925281206002018054600192906117a790849061333a565b90915550505b806001600160a01b0316826001600160a01b03167f17307eab39ab6107e8899845ad3d59bd9653f200f220920489ca2b5937696c31856040516117f4911515815260200190565b60405180910390a350505050565b600e805461180f90613408565b80601f016020809104026020016040519081016040528092919081815260200182805461183b90613408565b80156118885780601f1061185d57610100808354040283529160200191611888565b820191906000526020600020905b81548152906001019060200180831161186b57829003601f168201915b505050505081565b6014602052600090815260409020805481906118ab90613408565b80601f01602080910402602001604051908101604052809291908181526020018280546118d790613408565b80156119245780601f106118f957610100808354040283529160200191611924565b820191906000526020600020905b81548152906001019060200180831161190757829003601f168201915b50505050509080600101805461193990613408565b80601f016020809104026020016040519081016040528092919081815260200182805461196590613408565b80156119b25780601f10611987576101008083540402835291602001916119b2565b820191906000526020600020905b81548152906001019060200180831161199557829003601f168201915b5050505050908060020154908060030154905084565b6119d96119d36121ef565b83612279565b611a4b5760405162461bcd60e51b815260206004820152603160248201527f4552433732313a207472616e736665722063616c6c6572206973206e6f74206f60448201527f776e6572206e6f7220617070726f76656400000000000000000000000000000060648201526084016109a9565b611a568260006120bb565b611a6284848484612546565b6000611a6d83610923565b6001600160a01b031614611ac257600160186000611a8a85610923565b6001600160a01b03166001600160a01b031681526020019081526020016000206001016000828254611abc91906133c5565b90915550505b50505050565b60008181526014602052604081206003015415611b0457600082815260146020526040812060030154611afd90606490613352565b9392505050565b506000919050565b600d805461180f90613408565b6000611b236121ef565b90506064826bffffffffffffffffffffffff161115611b845760405162461bcd60e51b815260206004820152601960248201527f526f79616c7469657320757020746f2031303025206f6e6c790000000000000060448201526064016109a9565b6000838152600260205260409020546001600160a01b0316611be85760405162461bcd60e51b815260206004820152601260248201527f4e6f6e2d6578697374656e7420746f6b656e000000000000000000000000000060448201526064016109a9565b600a546001600160a01b0382811691161480611c235750600a546001600160a01b039081166000908152601560205260409020548282169116145b611c6f5760405162461bcd60e51b815260206004820152601f60248201527f41646d696e206f7220617070726f766564206f70657261746f72206f6e6c790060448201526064016109a9565b611c7883611340565b600a546001600160a01b03908116911614611cfb5760405162461bcd60e51b815260206004820152602360248201527f546f6b656e20697320736f6c64202d206d6179206e6f742073657420726f796160448201527f6c7479000000000000000000000000000000000000000000000000000000000060648201526084016109a9565b6000611d08836064613391565b6000948552601460205260409094206bffffffffffffffffffffffff909416600390940193909355505050565b600c805461180f90613408565b6000818152600260205260409020546060906001600160a01b0316151580611d6a5750601154155b611ddc5760405162461bcd60e51b815260206004820152602f60248201527f4552433732314d657461646174613a2055524920717565727920666f72206e6f60448201527f6e6578697374656e7420746f6b656e000000000000000000000000000000000060648201526084016109a9565b6000611e1860408051808201909152600781527f697066733a2f2f00000000000000000000000000000000000000000000000000602082015290565b90506000815111611e385760405180602001604052806000815250611afd565b6000838152601460209081526040918290209151611e5a9284929091016131bf565b6040516020818303038152906040529392505050565b6000611e7a6121ef565b600a549091506001600160a01b03808316911614611eda5760405162461bcd60e51b815260206004820152600a60248201527f41646d696e206f6e6c790000000000000000000000000000000000000000000060448201526064016109a9565b611ee681600f54612683565b600f5460009081526014602090815260409091208551611f0892870190612d6e565b50600f5460009081526014602090815260409091208351611f3192600190920191850190612d6e565b5060016013600085604051602001611f4991906131a3565b60408051808303601f190181529181528151602092830120835290820192909252016000908120805460ff191692151592909217909155600f8054601180546001810182559084527f31ecc21a745e3968a04e9570e4425bc18fa8019c68028196b546d1669c200c680181905591610f4783613443565b60006001600160a01b0382167358807bad0b376efc12f5ad86aac70e78ed67deae1415611fef5750600161088b565b506001600160a01b03918216600090815260166020908152604080832093909416825291909152205460ff1690565b6000806001831480156120395750600061203785611469565b115b15612042575060015b82600214801561206c57506001600160a01b03841660009081526018602052604090206002015415155b15612075575060015b82600314801561209f57506001600160a01b03841660009081526018602052604090206001015415155b15611afd575060019392505050565b600b805461180f90613408565b6120c66119d36121ef565b6121385760405162461bcd60e51b815260206004820152603060248201527f5072696365206d617920626520736574206279206f776e6572206f722061707060448201527f726f766564206167656e74206f6e6c790000000000000000000000000000000060648201526084016109a9565b6000828152600260205260409020546001600160a01b031661219c5760405162461bcd60e51b815260206004820152601260248201527f4e6f6e2d6578697374656e7420746f6b656e000000000000000000000000000060448201526064016109a9565b60009182526014602052604090912060020155565b60006001600160e01b031982167f780e9d6300000000000000000000000000000000000000000000000000000000148061088b575061088b8261269d565b60006121f9612738565b905090565b6000818152600460205260409020805473ffffffffffffffffffffffffffffffffffffffff19166001600160a01b038416908117909155819061224082611340565b6001600160a01b03167f8c5be1e5ebec7d5bd14f71427d1e84f3dd0314c0f7b2291e5b200ac8c7c3b92560405160405180910390a45050565b6000818152600260205260408120546001600160a01b03166123035760405162461bcd60e51b815260206004820152602c60248201527f4552433732313a206f70657261746f7220717565727920666f72206e6f6e657860448201527f697374656e7420746f6b656e000000000000000000000000000000000000000060648201526084016109a9565b600061230e83611340565b9050806001600160a01b0316846001600160a01b031614806123495750836001600160a01b031661233e84610923565b6001600160a01b0316145b8061235957506123598185611fc0565b949350505050565b826001600160a01b031661237482611340565b6001600160a01b0316146123f05760405162461bcd60e51b815260206004820152602960248201527f4552433732313a207472616e73666572206f6620746f6b656e2074686174206960448201527f73206e6f74206f776e000000000000000000000000000000000000000000000060648201526084016109a9565b6001600160a01b03821661246b5760405162461bcd60e51b8152602060048201526024808201527f4552433732313a207472616e7366657220746f20746865207a65726f2061646460448201527f726573730000000000000000000000000000000000000000000000000000000060648201526084016109a9565b612476838383612795565b6124816000826121fe565b6001600160a01b03831660009081526003602052604081208054600192906124aa9084906133c5565b90915550506001600160a01b03821660009081526003602052604081208054600192906124d890849061333a565b9091555050600081815260026020526040808220805473ffffffffffffffffffffffffffffffffffffffff19166001600160a01b0386811691821790925591518493918716917fddf252ad1be2c89b69c2b068fc378daa952ba7f163c4a11628f55a4df523b3ef91a4505050565b612551848484612361565b61255d8484848461284d565b611ac25760405162461bcd60e51b815260206004820152603260248201527f4552433732313a207472616e7366657220746f206e6f6e20455243373231526560448201527f63656976657220696d706c656d656e746572000000000000000000000000000060648201526084016109a9565b60006125da82611340565b90506125e881600084612795565b6125f36000836121fe565b6001600160a01b038116600090815260036020526040812080546001929061261c9084906133c5565b9091555050600082815260026020526040808220805473ffffffffffffffffffffffffffffffffffffffff19169055518391906001600160a01b038416907fddf252ad1be2c89b69c2b068fc378daa952ba7f163c4a11628f55a4df523b3ef908390a45050565b6114658282604051806020016040528060008152506129d0565b60006001600160e01b031982167f80ac58cd00000000000000000000000000000000000000000000000000000000148061270057506001600160e01b031982167f5b5e139f00000000000000000000000000000000000000000000000000000000145b8061088b57507f01ffc9a7000000000000000000000000000000000000000000000000000000006001600160e01b031983161461088b565b60003330141561278f57600080368080601f0160208091040260200160405190810160405280939291908181526020018383808284376000920191909152505050503601516001600160a01b031691506127929050565b50335b90565b6001600160a01b0383166127f0576127eb81600880546000838152600960205260408120829055600182018355919091527ff3f7a9fe364faab93b216da50a3214154f22a0a2b415b23a84c8169e8b636ee30155565b612813565b816001600160a01b0316836001600160a01b031614612813576128138382612a59565b6001600160a01b03821661282a57610b9c81612af6565b826001600160a01b0316826001600160a01b031614610b9c57610b9c8282612bcf565b60006001600160a01b0384163b156129c557836001600160a01b031663150b7a026128766121ef565b8786866040518563ffffffff1660e01b8152600401612898949392919061326e565b602060405180830381600087803b1580156128b257600080fd5b505af19250505080156128e2575060408051601f3d908101601f191682019092526128df91810190613037565b60015b612992573d808015612910576040519150601f19603f3d011682016040523d82523d6000602084013e612915565b606091505b50805161298a5760405162461bcd60e51b815260206004820152603260248201527f4552433732313a207472616e7366657220746f206e6f6e20455243373231526560448201527f63656976657220696d706c656d656e746572000000000000000000000000000060648201526084016109a9565b805181602001fd5b6001600160e01b0319167f150b7a0200000000000000000000000000000000000000000000000000000000149050612359565b506001949350505050565b6129da8383612c13565b6129e7600084848461284d565b610b9c5760405162461bcd60e51b815260206004820152603260248201527f4552433732313a207472616e7366657220746f206e6f6e20455243373231526560448201527f63656976657220696d706c656d656e746572000000000000000000000000000060648201526084016109a9565b60006001612a6684611469565b612a7091906133c5565b600083815260076020526040902054909150808214612ac3576001600160a01b03841660009081526006602090815260408083208584528252808320548484528184208190558352600790915290208190555b5060009182526007602090815260408084208490556001600160a01b039094168352600681528383209183525290812055565b600854600090612b08906001906133c5565b60008381526009602052604081205460088054939450909284908110612b3e57634e487b7160e01b600052603260045260246000fd5b906000526020600020015490508060088381548110612b6d57634e487b7160e01b600052603260045260246000fd5b6000918252602080832090910192909255828152600990915260408082208490558582528120556008805480612bb357634e487b7160e01b600052603160045260246000fd5b6001900381819060005260206000200160009055905550505050565b6000612bda83611469565b6001600160a01b039093166000908152600660209081526040808320868452825280832085905593825260079052919091209190915550565b6001600160a01b038216612c695760405162461bcd60e51b815260206004820181905260248201527f4552433732313a206d696e7420746f20746865207a65726f206164647265737360448201526064016109a9565b6000818152600260205260409020546001600160a01b031615612cce5760405162461bcd60e51b815260206004820152601c60248201527f4552433732313a20746f6b656e20616c7265616479206d696e7465640000000060448201526064016109a9565b612cda60008383612795565b6001600160a01b0382166000908152600360205260408120805460019290612d0390849061333a565b9091555050600081815260026020526040808220805473ffffffffffffffffffffffffffffffffffffffff19166001600160a01b03861690811790915590518392907fddf252ad1be2c89b69c2b068fc378daa952ba7f163c4a11628f55a4df523b3ef908290a45050565b828054612d7a90613408565b90600052602060002090601f016020900481019282612d9c5760008555612de2565b82601f10612db557805160ff1916838001178555612de2565b82800160010185558215612de2579182015b82811115612de2578251825591602001919060010190612dc7565b50612dee929150612df2565b5090565b5b80821115612dee5760008155600101612df3565b600067ffffffffffffffff80841115612e2257612e22613474565b604051601f8501601f19908116603f01168101908282118183101715612e4a57612e4a613474565b81604052809350858152868686011115612e6357600080fd5b858560208301376000602087830101525050509392505050565b80356001600160a01b0381168114612e9457600080fd5b919050565b600082601f830112612ea9578081fd5b611afd83833560208501612e07565b600060208284031215612ec9578081fd5b611afd82612e7d565b60008060408385031215612ee4578081fd5b612eed83612e7d565b9150612efb60208401612e7d565b90509250929050565b600080600060608486031215612f18578081fd5b612f2184612e7d565b9250612f2f60208501612e7d565b9150604084013590509250925092565b60008060008060808587031215612f54578081fd5b612f5d85612e7d565b9350612f6b60208601612e7d565b925060408501359150606085013567ffffffffffffffff811115612f8d578182fd5b8501601f81018713612f9d578182fd5b612fac87823560208401612e07565b91505092959194509250565b60008060408385031215612fca578182fd5b612fd383612e7d565b915060208301358015158114612fe7578182fd5b809150509250929050565b60008060408385031215613004578182fd5b61300d83612e7d565b946020939093013593505050565b60006020828403121561302c578081fd5b8135611afd8161348a565b600060208284031215613048578081fd5b8151611afd8161348a565b600060208284031215613064578081fd5b813567ffffffffffffffff81111561307a578182fd5b61235984828501612e99565b60008060006060848603121561309a578283fd5b833567ffffffffffffffff808211156130b1578485fd5b6130bd87838801612e99565b945060208601359150808211156130d2578384fd5b6130de87838801612e99565b935060408601359150808211156130f3578283fd5b5061310086828701612e99565b9150509250925092565b60006020828403121561311b578081fd5b5035919050565b60008060408385031215613134578182fd5b50508035926020909101359150565b60008060408385031215613155578182fd5b8235915060208301356bffffffffffffffffffffffff81168114612fe7578182fd5b6000815180845261318f8160208601602086016133dc565b601f01601f19169290920160200192915050565b600082516131b58184602087016133dc565b9190910192915050565b6000835160206131d282858389016133dc565b8454918401918390600181811c90808316806131ef57607f831692505b85831081141561320d57634e487b7160e01b88526022600452602488fd5b80801561322157600181146132325761325e565b60ff1985168852838801955061325e565b60008b815260209020895b858110156132565781548a82015290840190880161323d565b505083880195505b50939a9950505050505050505050565b60006001600160a01b038087168352808616602084015250836040830152608060608301526132a06080830184613177565b9695505050505050565b6020808252825182820181905260009190848201906040850190845b818110156132e2578351835292840192918401916001016132c6565b50909695505050505050565b602081526000611afd6020830184613177565b6080815260006133146080830187613177565b82810360208401526133268187613177565b604084019590955250506060015292915050565b6000821982111561334d5761334d61345e565b500190565b60008261336d57634e487b7160e01b81526012600452602481fd5b500490565b600081600019048311821515161561338c5761338c61345e565b500290565b60006bffffffffffffffffffffffff808316818516818304811182151516156133bc576133bc61345e565b02949350505050565b6000828210156133d7576133d761345e565b500390565b60005b838110156133f75781810151838201526020016133df565b83811115611ac25750506000910152565b600181811c9082168061341c57607f821691505b6020821081141561343d57634e487b7160e01b600052602260045260246000fd5b50919050565b60006000198214156134575761345761345e565b5060010190565b634e487b7160e01b600052601160045260246000fd5b634e487b7160e01b600052604160045260246000fd5b6001600160e01b0319811681146134a057600080fd5b5056fea26469706673582212202a300d7e8f438deed79b37ca7f2205626eafc7208134f43734b514b1d3684ef164736f6c63430008040033",
  "immutableReferences": {},
  "source": "// SPDX-License-Identifier: UNLICENSED\r\npragma solidity ^0.8.4;\r\n\r\nimport \"@openzeppelin/contracts/token/ERC721/extensions/ERC721Enumerable.sol\";\r\nimport \"./@context/ContextMixin.sol\";\r\n\r\ncontract NftFactory {\r\n  struct contractData {\r\n    address contractAddress;\r\n    string contractSymbol;\r\n    string contractName;\r\n    address contractOwner;\r\n    bool contractDeployed;\r\n  }\r\n\r\n  string[] public symbols;\r\n  address public factoryCreator;\r\n  mapping(bytes32 => string) public symbolPath;\r\n  mapping(bytes32 => contractData) public deployedContracts;\r\n  MintingPress public newNft;\r\n\r\n  constructor() {\r\n    factoryCreator = msg.sender;\r\n  }\r\n\r\n  function createMintingPress(\r\n    string memory api,\r\n    string memory pressName,\r\n    string memory pressSymbol,\r\n    string memory nftDescr,\r\n    uint initialId,\r\n    string memory pressAuthor,\r\n    string memory newPath\r\n  ) external returns (address) {\r\n    newNft = new MintingPress(\r\n      api,\r\n      pressName,\r\n      pressSymbol,\r\n      nftDescr,\r\n      initialId,\r\n      pressAuthor,\r\n      msg.sender\r\n    );\r\n    address _newNft = address(newNft);\r\n    symbols.push(pressSymbol);\r\n    symbolPath[keccak256(abi.encodePacked(pressSymbol))] = newPath;\r\n    deployedContracts[keccak256(abi.encodePacked(newPath))].contractAddress = _newNft;\r\n    deployedContracts[keccak256(abi.encodePacked(newPath))].contractSymbol = pressSymbol;\r\n    deployedContracts[keccak256(abi.encodePacked(newPath))].contractName = pressName;\r\n    deployedContracts[keccak256(abi.encodePacked(newPath))].contractOwner = msg.sender;\r\n    deployedContracts[keccak256(abi.encodePacked(newPath))].contractDeployed = true;\r\n    return _newNft;\r\n  }\r\n\r\n  function getContractBySymbol(string memory _symbol) external view returns (string memory) {\r\n    string memory _pathBySymbol = symbolPath[keccak256(abi.encodePacked(_symbol))];\r\n    return _pathBySymbol;\r\n  }\r\n\r\n  function getContractAddress(string memory _path) external view returns (address) {\r\n    address _contractAddress = deployedContracts[keccak256(abi.encodePacked(_path))].contractAddress;\r\n    return _contractAddress;\r\n  }\r\n\r\n  function getSymbols() external view returns (string[] memory) {\r\n    return symbols;\r\n  }\r\n}\r\n\r\n\r\ncontract MintingPress is ERC721Enumerable, ContextMixin {\r\n\r\n  struct assetData {\r\n    string cid;\r\n    string title;\r\n    uint256 price;\r\n    uint256 royalty;\r\n  }\r\n\r\n  struct user {\r\n    uint owner;\r\n    uint manager;\r\n    uint operator;\r\n  }\r\n\r\n  address public admin;\r\n  string public pName;\r\n  string public pSymbol;\r\n  string public descr;\r\n  string public author;\r\n  uint public tokenId;\r\n  string private _api;\r\n  uint[] internal _allTokens;\r\n  uint buyNonce = 1000000001;                   //Unique identifier for tokenBuy event\r\n  bytes4 private constant _INTERFACE_ID_ERC2981 = 0x2a55205a; //standardized royalties interface\r\n  mapping(bytes32 => bool) private _cids;\r\n  mapping(uint => assetData) public tokenData;\r\n  mapping(address => address) private operators;\r\n  mapping(address => mapping(address => bool)) private operatorApprovals;\r\n  mapping(uint => bool) public usedNonces;     //Stores processed nonces\r\n  mapping(address => user) public access;\r\n\r\n  //Emitteed when token is sold\r\n  event tokenBuy(\r\n    address _seller,\r\n    address _buyer,\r\n    uint _tokenId,\r\n    uint _tokenPrice,\r\n    uint _royaltyPct,\r\n    uint _date,\r\n    uint buyNonce\r\n  );\r\n\r\n  constructor(\r\n    string memory api,\r\n    string memory pressName,\r\n    string memory pressSymbol,\r\n    string memory pressDescription,\r\n    uint initialTokenId,\r\n    string memory pressAuthor,\r\n    address creator\r\n  ) ERC721(pressName, pressSymbol) {\r\n    _api = api;\r\n    pName = pressName;\r\n    pSymbol = pressSymbol;\r\n    descr = pressDescription;\r\n    author = pressAuthor;\r\n    //sets the admin address - msg.sender wil not work here, must be passed from NftFactory\r\n    admin = creator;\r\n    tokenId = initialTokenId;\r\n  }\r\n\r\n  //overrides to recognize OpenSea address\r\n  function _msgSender()\r\n    internal\r\n    view\r\n    override(Context)\r\n    returns (address sender)\r\n  {\r\n    return ContextMixin.msgSender();\r\n  }\r\n\r\n  //Mints a new token to admin's address\r\n  function mint(\r\n    string memory _cidMeta,\r\n    string memory _cidToken,\r\n    string memory _title\r\n  ) external {\r\n    address _sender = _msgSender();\r\n    require(_sender == admin, \"Admin only\");\r\n    _safeMint(_sender, tokenId);\r\n\r\n    tokenData[tokenId].cid = _cidMeta;\r\n    tokenData[tokenId].title = _title;\r\n    _cids[keccak256(abi.encodePacked(_cidToken))] = true;\r\n    _allTokens.push(tokenId);\r\n    tokenId ++;\r\n  }\r\n\r\n  function getApi(address _sender) external view returns (string memory) {\r\n    require(_sender == admin, \"Admin only\");\r\n    return _api;\r\n  }\r\n\r\n  //Returns meta data file IPFS CID for a given token ID\r\n  function getCid(uint _tokenId) public view virtual returns (string memory) {\r\n    string memory _cid = tokenData[_tokenId].cid;\r\n    return _cid;\r\n  }\r\n\r\n  //Returns individual asset tite\r\n  function getTitle(uint _tokenId) public view virtual returns (string memory) {\r\n    string memory _title = tokenData[_tokenId].title;\r\n    return _title;\r\n  }\r\n\r\n  //Checks if asset has already been minted by looking up IPFS hash (CID)\r\n  function existsCid(string memory _cid) public view virtual returns (bool) {\r\n    bool _existsCid = _cids[keccak256(abi.encodePacked(_cid))];\r\n    return _existsCid;\r\n  }\r\n\r\n  //Sets token selling price so it may be sold\r\n  function setPrice(uint _tokenId, uint _tokenPrice) public {\r\n    require(_isApprovedOrOwner(_msgSender(), _tokenId), \"Price may be set by owner or approved agent only\");\r\n    require(_exists(_tokenId), \"Non-existent token\");\r\n    tokenData[_tokenId].price = _tokenPrice;\r\n  }\r\n\r\n  //Returns selling price for a given token ID\r\n  function getPrice(uint _tokenId) public view virtual returns (uint) {\r\n    uint _price = tokenData[_tokenId].price;\r\n    return _price;\r\n  }\r\n\r\n\r\n  //Sets royalties for Rarible, to be merged with setCommission() above\r\n  function setRoyalties(uint _tokenId, uint96 _royaltyPct) public {\r\n    address _sender = _msgSender();\r\n    require(_royaltyPct <= 100, \"Royalties up to 100% only\");\r\n    require(_exists(_tokenId), \"Non-existent token\");\r\n    require(_sender == admin || _sender == operators[admin], \"Admin or approved operator only\");\r\n    require(admin == ownerOf(_tokenId), \"Token is sold - may not set royalty\");\r\n    uint96 _percentageBasisPoints = _royaltyPct * 100;\r\n    tokenData[_tokenId].royalty = _percentageBasisPoints;\r\n  }\r\n\r\n\r\n  //Returns creator's royalties (%)\r\n  function getRoyalties(uint _tokenId) public view virtual returns (uint) {\r\n    if(tokenData[_tokenId].royalty > 0) {\r\n      uint _royalty = tokenData[_tokenId].royalty / 100;\r\n      return _royalty;\r\n    }\r\n    return 0;\r\n  }\r\n\r\n\r\n  //royalties - rarible and ERC2981 interface support\r\n  function supportsInterface(bytes4 interfaceId) public view virtual override returns (bool) {\r\n    if (interfaceId == _INTERFACE_ID_ERC2981) {\r\n      return true;\r\n    }\r\n    return super.supportsInterface(interfaceId);\r\n  }\r\n\r\n\r\n  //Buy-sell token\r\n  function buyToken(uint _tokenId) external payable {\r\n    uint _price = tokenData[_tokenId].price;\r\n    uint _royalty = _price *  tokenData[_tokenId].royalty / 10000;\r\n    require(_price > 0, 'Token is not for sale');\r\n    require(msg.value == _price, 'Price is incorrect');\r\n    address _seller = ownerOf(_tokenId);\r\n    _safeTransfer(_seller, _msgSender(), _tokenId, \"\");\r\n    if (_royalty > 0) {\r\n      payable(admin).transfer(_royalty);\r\n    }\r\n    payable(_seller).transfer(_price - _royalty);\r\n    //cancels token manager's access\r\n    if (getApproved(_tokenId) != address(0)) {\r\n      access[getApproved(_tokenId)].manager -= 1;\r\n    }\r\n    tokenData[_tokenId].price = 0;\r\n    emit tokenBuy(_seller, _msgSender(), _tokenId, _price, _royalty, block.timestamp, buyNonce);\r\n    buyNonce++;\r\n  }\r\n\r\n  function tokenURI(uint _tokenId) public view virtual override returns (string memory) {\r\n    require(_exists(_tokenId) || _allTokens.length == 0, \"ERC721Metadata: URI query for nonexistent token\");\r\n      string memory baseURI = _baseURI();\r\n      return bytes(baseURI).length > 0\r\n        ? string(abi.encodePacked(baseURI, tokenData[_tokenId].cid))\r\n        : '';\r\n  }\r\n\r\n  function _baseURI() internal pure override returns (string memory) {\r\n    return \"ipfs://\";\r\n  }\r\n\r\n  function getTokenList() external view virtual returns(uint[] memory) {\r\n    return _allTokens;\r\n  }\r\n\r\n  function burn(uint _tokenId) external returns (bool) {\r\n    address _sender = _msgSender();\r\n    require(_isApprovedOrOwner(_sender, _tokenId), \"ERC721: transfer caller is not owner nor approved\");\r\n    //cancels token manager's access\r\n    if (getApproved(_tokenId) != address(0)) {\r\n      access[getApproved(_tokenId)].manager -= 1;\r\n    }\r\n    _burn(_tokenId);\r\n    address _owner = ownerOf(_tokenId);\r\n    address _operator = getOperator(_owner);\r\n    uint _balance = balanceOf(_owner);\r\n\r\n    //cancel operator's access if remaining balance is 0\r\n    if(_balance == 0) {\r\n      operatorApprovals[_owner][_operator] = false;\r\n      operators[_owner] = address(0);\r\n      access[getApproved(_tokenId)].operator -= 1;\r\n    }\r\n    return true;\r\n  }\r\n\r\n  function approve(address to, uint256 _tokenId) public virtual override {\r\n    address owner = ERC721.ownerOf(_tokenId);\r\n    require(to != owner, \"ERC721: approval to current owner\");\r\n\r\n    require(\r\n      _msgSender() == owner || isApprovedForAll(owner, _msgSender()),\r\n      \"ERC721: approve caller is not owner nor approved for all\"\r\n    );\r\n    _approve(to, _tokenId);\r\n    if (to != address(0)) {\r\n      access[to].manager += 1;\r\n    } else {\r\n      access[getApproved(_tokenId)].manager -= 1;\r\n    }\r\n  }\r\n\r\n  function setApprovalForAll(address operator, bool approved) public virtual override {\r\n    address _sender = _msgSender();\r\n    require(balanceOf(_sender) > 0, \"Do not own any tokens\");\r\n    require(operator != _sender, \"ERC721: approve to caller\");\r\n    address _operator = operator;\r\n    if (approved == false) {\r\n      access[_operator].operator -= 1;\r\n      _operator = address(0);\r\n    } else {\r\n      operatorApprovals[_sender][operator] = approved;\r\n      operators[_sender] = _operator;\r\n      access[_operator].operator += 1;\r\n    }\r\n    emit ApprovalForAll(_sender, _operator, approved);\r\n  }\r\n\r\n  function isApprovedForAll(address _owner, address _operator) public view override returns (bool isOperator) {\r\n    //allows OpenSea to operate the tokens: returns true if OpenSea's ERC721 proxy address is detected\r\n    if (_operator == address(0x58807baD0B376efc12F5AD86aAc70E78ed67deaE)) {\r\n      return true;\r\n    }\r\n    //otherwise - boilerplate ERC721\r\n    return operatorApprovals[_owner][_operator];\r\n  }\r\n\r\n  function getOperator(address _owner) public view virtual returns (address) {\r\n    address _operator = operators[_owner];\r\n    return _operator;\r\n  }\r\n\r\n  function clearApproval(address _approved, uint _tokenId) public {\r\n    require(getApproved(_tokenId) == _approved, \"The address is currently not approved to manage this token\");\r\n    approve(address(0), _tokenId);\r\n  }\r\n\r\n  //control dashboard access\r\n  function getAccess(address _sender, uint _type) public view virtual returns (bool) {\r\n    bool _access = false;\r\n    if (_type == 1 && balanceOf(_sender) > 0) {_access = true;}\r\n    if (_type == 2 && access[_sender].operator > 0) {_access = true;}\r\n    if (_type == 3 && access[_sender].manager > 0) {_access = true;}\r\n    return _access;\r\n  }\r\n\r\n  function getAddress() public view virtual returns(address) {\r\n    address _address = address(this);\r\n    return _address;\r\n  }\r\n\r\n  function safeTransferFrom(\r\n    address from,\r\n    address to,\r\n    uint256 _tokenId,\r\n    bytes memory _data\r\n  ) public virtual override {\r\n     require(_isApprovedOrOwner(_msgSender(), _tokenId), \"ERC721: transfer caller is not owner nor approved\");\r\n     setPrice(_tokenId, 0);\r\n     _safeTransfer(from, to, _tokenId, _data);\r\n     if (getApproved(_tokenId) != address(0)) {\r\n       access[getApproved(_tokenId)].manager -= 1;\r\n     }\r\n  }\r\n}\r\n",
  "sourcePath": "C:\\Users\\Seva\\nft-factory\\contracts\\NftFactory.sol",
  "compiler": {
    "name": "solc",
    "version": "0.8.4+commit.c7e474f2.Emscripten.clang"
  },
  "schemaVersion": "3.4.2",
  "updatedAt": "2021-11-21T21:41:21.109Z",
  "devdoc": {
    "kind": "dev",
    "methods": {
      "balanceOf(address)": {
        "details": "See {IERC721-balanceOf}."
      },
      "getApproved(uint256)": {
        "details": "See {IERC721-getApproved}."
      },
      "name()": {
        "details": "See {IERC721Metadata-name}."
      },
      "ownerOf(uint256)": {
        "details": "See {IERC721-ownerOf}."
      },
      "safeTransferFrom(address,address,uint256)": {
        "details": "See {IERC721-safeTransferFrom}."
      },
      "setApprovalForAll(address,bool)": {
        "details": "See {IERC721-setApprovalForAll}."
      },
      "supportsInterface(bytes4)": {
        "details": "See {IERC165-supportsInterface}."
      },
      "symbol()": {
        "details": "See {IERC721Metadata-symbol}."
      },
      "tokenByIndex(uint256)": {
        "details": "See {IERC721Enumerable-tokenByIndex}."
      },
      "tokenOfOwnerByIndex(address,uint256)": {
        "details": "See {IERC721Enumerable-tokenOfOwnerByIndex}."
      },
      "totalSupply()": {
        "details": "See {IERC721Enumerable-totalSupply}."
      },
      "transferFrom(address,address,uint256)": {
        "details": "See {IERC721-transferFrom}."
      }
    },
    "version": 1
  },
  "userdoc": {
    "kind": "user",
    "methods": {},
    "version": 1
  }
}